{"abi":[{"type":"constructor","inputs":[{"name":"_addressProvider","type":"address","internalType":"contract IPoolAddressesProvider"},{"name":"_swapRouter","type":"address","internalType":"contract ISwapRouter"}],"stateMutability":"nonpayable"},{"type":"function","name":"ADDRESSES_PROVIDER","inputs":[],"outputs":[{"name":"","type":"address","internalType":"contract IPoolAddressesProvider"}],"stateMutability":"view"},{"type":"function","name":"POOL","inputs":[],"outputs":[{"name":"","type":"address","internalType":"contract IPool"}],"stateMutability":"view"},{"type":"function","name":"executeOperation","inputs":[{"name":"asset","type":"address","internalType":"address"},{"name":"amount","type":"uint256","internalType":"uint256"},{"name":"premium","type":"uint256","internalType":"uint256"},{"name":"initiator","type":"address","internalType":"address"},{"name":"params","type":"bytes","internalType":"bytes"}],"outputs":[{"name":"","type":"bool","internalType":"bool"}],"stateMutability":"nonpayable"},{"type":"function","name":"liquidatoor","inputs":[{"name":"asset","type":"address","internalType":"address"},{"name":"collateral","type":"address","internalType":"address"},{"name":"userToLiquidate","type":"address","internalType":"address"},{"name":"amount","type":"uint256","internalType":"uint256"},{"name":"fee","type":"uint24","internalType":"uint24"}],"outputs":[],"stateMutability":"nonpayable"},{"type":"function","name":"swapRouter","inputs":[],"outputs":[{"name":"","type":"address","internalType":"contract ISwapRouter"}],"stateMutability":"view"},{"type":"event","name":"LogFlashLoanInitiated","inputs":[{"name":"asset","type":"address","indexed":false,"internalType":"address"},{"name":"collateral","type":"address","indexed":false,"internalType":"address"},{"name":"userToLiquidate","type":"address","indexed":false,"internalType":"address"},{"name":"amount","type":"uint256","indexed":false,"internalType":"uint256"}],"anonymous":false},{"type":"event","name":"LogFlashLoanRepayment","inputs":[{"name":"asset","type":"address","indexed":false,"internalType":"address"},{"name":"totalRepayment","type":"uint256","indexed":false,"internalType":"uint256"}],"anonymous":false},{"type":"event","name":"LogLiquidationCall","inputs":[{"name":"collateral","type":"address","indexed":false,"internalType":"address"},{"name":"asset","type":"address","indexed":false,"internalType":"address"},{"name":"user","type":"address","indexed":false,"internalType":"address"},{"name":"amount","type":"uint256","indexed":false,"internalType":"uint256"}],"anonymous":false},{"type":"event","name":"LogSwap","inputs":[{"name":"collateralBalance","type":"uint256","indexed":false,"internalType":"uint256"},{"name":"amountOut","type":"uint256","indexed":false,"internalType":"uint256"}],"anonymous":false}],"bytecode":{"object":"0x60e060405234801561000f575f5ffd5b5060405161145c38038061145c83398101604081905261002e91610191565b81806001600160a01b03166080816001600160a01b031681525050806001600160a01b031663026b1d5f6040518163ffffffff1660e01b8152600401602060405180830381865afa158015610085573d5f5f3e3d5ffd5b505050506040513d601f19601f820116820180604052508101906100a991906101c9565b6001600160a01b0390811660a052821660c0525060408051808201909152601481527f4c697175696461746f6f72206465706c6f79656400000000000000000000000060208201526100fa90610101565b5050610220565b6101488160405160240161011591906101eb565b60408051601f198184030181529190526020810180516001600160e01b0390811663104c13eb60e21b1790915261014b16565b50565b6101488161015e60201b610c3f1760201c565b5f6a636f6e736f6c652e6c6f6790505f5f835160208501845afa505050565b6001600160a01b0381168114610148575f5ffd5b5f5f604083850312156101a2575f5ffd5b82516101ad8161017d565b60208401519092506101be8161017d565b809150509250929050565b5f602082840312156101d9575f5ffd5b81516101e48161017d565b9392505050565b602081525f82518060208401528060208501604085015e5f604082850101526040601f19601f83011684010191505092915050565b60805160a05160c0516111dc6102805f395f8181610101015281816104e50152818161059e015281816106d4015261082b01525f818160c5015281816101d201528181610335015281816109400152610bcd01525f605e01526111dc5ff3fe608060405234801561000f575f5ffd5b5060043610610055575f3560e01c80630542975c146100595780631b11d0ff1461009d5780637535d246146100c0578063859de873146100e7578063c31c9c07146100fc575b5f5ffd5b6100807f000000000000000000000000000000000000000000000000000000000000000081565b6040516001600160a01b0390911681526020015b60405180910390f35b6100b06100ab366004610daf565b610123565b6040519015158152602001610094565b6100807f000000000000000000000000000000000000000000000000000000000000000081565b6100fa6100f5366004610e6b565b610a8f565b005b6100807f000000000000000000000000000000000000000000000000000000000000000081565b5f6101626040518060400160405280601881526020017f657865637574654f7065726174696f6e20737461727465640000000000000000815250610c5e565b5f808061017185870187610ecb565b9250925092506101bb6040518060400160405280600f81526020016e2232b1b7b232b2103830b930b6b99d60891b815250846001600160a01b0316846001600160a01b0316610ca4565b60405163095ea7b360e01b81526001600160a01b037f000000000000000000000000000000000000000000000000000000000000000081166004830152602482018b90528b169063095ea7b3906044016020604051808303815f875af1158015610227573d5f5f3e3d5ffd5b505050506040513d601f19601f8201168201806040525081019061024b9190610f0f565b5061026e6040518060600160405280602c815260200161110c602c91398a610cf0565b6040516370a0823160e01b81523060048201525f906001600160a01b038516906370a0823190602401602060405180830381865afa1580156102b2573d5f5f3e3d5ffd5b505050506040513d601f19601f820116820180604052508101906102d69190610f35565b90506102fa6040518060600160405280602381526020016111386023913982610cf0565b60405162a718a960e01b81526001600160a01b0385811660048301528c811660248301528481166044830152606482018c90525f60848301527f0000000000000000000000000000000000000000000000000000000000000000169062a718a99060a4015f604051808303815f87803b158015610375575f5ffd5b505af1158015610387573d5f5f3e3d5ffd5b505050507fc31441c8218f8fad40c09250d2b457dfb4f764a65b3481ee289d9ace58e9e319848c858d6040516103e594939291906001600160a01b039485168152928416602084015292166040820152606081019190915260800190565b60405180910390a161042b6040518060400160405280601881526020017f4c69717569646174696f6e43616c6c2065786563757465640000000000000000815250610c5e565b8a6001600160a01b0316846001600160a01b03161461091e576040516370a0823160e01b81523060048201526001600160a01b038516906370a0823190602401602060405180830381865afa158015610486573d5f5f3e3d5ffd5b505050506040513d601f19601f820116820180604052508101906104aa9190610f35565b90506104ce60405180606001604052806024815260200161115b6024913982610cf0565b60405163095ea7b360e01b81526001600160a01b037f0000000000000000000000000000000000000000000000000000000000000000811660048301526024820183905285169063095ea7b3906044016020604051808303815f875af115801561053a573d5f5f3e3d5ffd5b505050506040513d601f19601f8201168201806040525081019061055e9190610f0f565b5061058160405180606001604052806028815260200161117f6028913982610cf0565b604051636eb1769f60e11b81523060048201526001600160a01b037f00000000000000000000000000000000000000000000000000000000000000008116602483015285169063dd62ed3e90604401602060405180830381865afa1580156105eb573d5f5f3e3d5ffd5b505050506040513d601f19601f8201168201806040525081019061060f9190610f35565b5060408051610100810182526001600160a01b0380871682528d1660208083019190915262ffffff85168284015230606083015242608083015260a082018490525f60c0830181905260e08301528251808401909352601d83527f5377617020706172616d65746572732068617665206265656e20736574000000908301529061069890610c5e565b604080518082018252600a81526920b63637bbb0b731b29d60b11b60208201529051636eb1769f60e11b81523060048201526001600160a01b037f00000000000000000000000000000000000000000000000000000000000000008116602483015261075192919088169063dd62ed3e906044015b602060405180830381865afa158015610728573d5f5f3e3d5ffd5b505050506040513d601f19601f8201168201806040525081019061074c9190610f35565b610cf0565b604080518082018252601381527221b7b63630ba32b930b6102130b630b731b29d60691b602082015290516370a0823160e01b81523060048201526107aa91906001600160a01b038816906370a082319060240161070d565b6108126040518060400160405280601581526020017429bbb0b8102830b930b6b2ba32b9399d102332b29d60591b815250826040015162ffffff166040518060400160405280600a81526020016920b6b7bab73a1024b71d60b11b8152508460a00151610d39565b60405163414bf38960e01b81525f906001600160a01b037f0000000000000000000000000000000000000000000000000000000000000000169063414bf38990610860908590600401610f4c565b6020604051808303815f875af115801561087c573d5f5f3e3d5ffd5b505050506040513d601f19601f820116820180604052508101906108a09190610f35565b60408051858152602081018390529192507ffbce846c23a724e6e61161894819ec46c90a8d3dd96e90e7342c6ef49ffb539c910160405180910390a161091b6040518060400160405280601a81526020017f537761702065786563757465642c20616d6f756e74206f75743a00000000000081525082610cf0565b50505b5f6109298a8c610fc9565b60405163095ea7b360e01b81526001600160a01b037f00000000000000000000000000000000000000000000000000000000000000008116600483015260248201839052919250908d169063095ea7b3906044016020604051808303815f875af1158015610999573d5f5f3e3d5ffd5b505050506040513d601f19601f820116820180604052508101906109bd9190610f0f565b50604080516001600160a01b038e168152602081018390527f90e029c7a51d2ee44a9d80bc95fe457c071e4aa7290291bb299a33d4746c0d9d910160405180910390a1610a3f6040518060400160405280601e81526020017f466c617368206c6f616e2072657061796d656e7420617070726f7665643a000081525082610cf0565b610a7d6040518060400160405280601981526020017f657865637574654f7065726174696f6e2066696e697368656400000000000000815250610c5e565b5060019b9a5050505050505050505050565b610ac5604051806040016040528060158152602001741b1a5c5d5a59185d1bdbdc881a5b9a5d1a585d1959605a1b815250610c5e565b604080516001600160a01b03878116825286811660208301528516818301526060810184905290517f9ee78a5f91801ae226fd0a7185888d4f652b3a22cb634238082b54dba69d54919181900360800190a1604080516001600160a01b03808716602083015285169181019190915262ffffff821660608201525f9060800160408051601f1981840301815282820190915260128252711c185c985b595d195c9cc8195b98dbd9195960721b60208301529150610b8190610c5e565b610bb66040518060400160405280601481526020017334b734ba34b0ba34b73390333630b9b43637b0b760611b815250610c5e565b6040516310ac2ddf60e21b81526001600160a01b037f000000000000000000000000000000000000000000000000000000000000000016906342b0b77c90610c0a9030908a90889087905f9060040161101c565b5f604051808303815f87803b158015610c21575f5ffd5b505af1158015610c33573d5f5f3e3d5ffd5b50505050505050505050565b5f6a636f6e736f6c652e6c6f6790505f5f835160208501845afa505050565b610ca181604051602401610c729190611064565b60408051601f198184030181529190526020810180516001600160e01b031663104c13eb60e21b179052610d88565b50565b610ceb838383604051602401610cbc93929190611076565b60408051601f198184030181529190526020810180516001600160e01b031663ca47c4eb60e01b179052610d88565b505050565b610d358282604051602401610d0692919061109a565b60408051601f198184030181529190526020810180516001600160e01b0316632d839cb360e21b179052610d88565b5050565b610d8284848484604051602401610d5394939291906110bb565b60408051601f198184030181529190526020810180516001600160e01b031663c67ea9d160e01b179052610d88565b50505050565b610ca181610c3f565b610d996110f7565b565b6001600160a01b0381168114610ca1575f5ffd5b5f5f5f5f5f5f60a08789031215610dc4575f5ffd5b8635610dcf81610d9b565b955060208701359450604087013593506060870135610ded81610d9b565b9250608087013567ffffffffffffffff811115610e08575f5ffd5b8701601f81018913610e18575f5ffd5b803567ffffffffffffffff811115610e2e575f5ffd5b896020828401011115610e3f575f5ffd5b60208201935080925050509295509295509295565b803562ffffff81168114610e66575f5ffd5b919050565b5f5f5f5f5f60a08688031215610e7f575f5ffd5b8535610e8a81610d9b565b94506020860135610e9a81610d9b565b93506040860135610eaa81610d9b565b925060608601359150610ebf60808701610e54565b90509295509295909350565b5f5f5f60608486031215610edd575f5ffd5b8335610ee881610d9b565b92506020840135610ef881610d9b565b9150610f0660408501610e54565b90509250925092565b5f60208284031215610f1f575f5ffd5b81518015158114610f2e575f5ffd5b9392505050565b5f60208284031215610f45575f5ffd5b5051919050565b81516001600160a01b03908116825260208084015182169083015260408084015162ffffff169083015260608084015191821690830152610100820190506080830151608083015260a083015160a083015260c083015160c083015260e0830151610fc260e08401826001600160a01b03169052565b5092915050565b80820180821115610fe857634e487b7160e01b5f52601160045260245ffd5b92915050565b5f81518084528060208401602086015e5f602082860101526020601f19601f83011685010191505092915050565b6001600160a01b038681168252851660208201526040810184905260a0606082018190525f9061104e90830185610fee565b905061ffff831660808301529695505050505050565b602081525f610f2e6020830184610fee565b606081525f6110886060830186610fee565b60208301949094525060400152919050565b604081525f6110ac6040830185610fee565b90508260208301529392505050565b608081525f6110cd6080830187610fee565b85602084015282810360408401526110e58186610fee565b91505082606083015295945050505050565b634e487b7160e01b5f52605160045260245ffdfe417070726f76656420706f6f6c20746f2070756c6c20617373657420666f72206c69717569646174696f6e3a436f6c6c61746572616c2062616c616e6365207072652d6c69717569646174696f6e3a436f6c6c61746572616c2062616c616e636520706f73742d6c69717569646174696f6e3a417070726f7665642073776170526f7574657220746f207370656e6420636f6c6c61746572616c3aa264697066735822122062dfb2d5080dadbbdebd61305fdfddd8bcf02b39059314faa6300ae9f1b69f8864736f6c634300081b0033","linkReferences":{}},"methodIdentifiers":{"ADDRESSES_PROVIDER()":"0542975c","POOL()":"7535d246","executeOperation(address,uint256,uint256,address,bytes)":"1b11d0ff","liquidatoor(address,address,address,uint256,uint24)":"859de873","swapRouter()":"c31c9c07"},"id":9}